:100000000C9434000C9428010C9428010C942801C1
:100010000C9428010C9428010C9428010C942801BC
:100020000C9428010C9428010C9428010C942801AC
:100030000C9428010C9428010C9428010C9428019C
:100040000C9428010C9428010C9428010C9428018C
:100050000C9428010C9428010C9428010C9428017C
:100060000C9428010C94280111241FBECFEFD8E076
:10007000DEBFCDBFE8E6F0E040E017C0B591A59146
:1000800035912591059107FD0CC095918591EF0162
:10009000F92FE82F05900D92A217B307D9F7FE01AB
:1000A00004C01D92A217B307E1F7E836F40731F751
:0C00B0000E94B0000C945C00F894FFCF9C
:1000BC00823D910570F48DEC90E0909389008093D3
:1000CC00880087E893E10197F1F700C0000084E114
:1000DC0008959C01225D31092C32314070F48AE97B
:1000EC0091E0909389008093880087E893E10197D1
:1000FC00F1F700C0000089E108959C012E5F3140AA
:10010C00283C310570F48DEC92E09093890080933B
:10011C00880087E893E10197F1F700C000008DE1BA
:10012C000895865C92408B33914070F48DEC93E093
:10013C00909389008093880087E893E10197F1F709
:10014C0000C0000081E2089510928900109288008E
:04015C0080E00895A2
:100160000E94EA000E940B010E94FD0087E690E0D9
:100170000E94160149990DC04899FCCF85B1816054
:1001800085B980E00E94D1000E945E000E9421019A
:10019000F1CF85B18E7F85B91092890010928800C9
:0201A000E9CFA5
:1001A200ECE7F0E09081987F908387709081892BB3
:1001B2008083EAE7F0E080818064808380917A0026
:1001C20084FFFCCF80917A00809178009091790031
:0201D20008958E
:1001D40084B1816084B985B18E7F85B98AB18E7FFF
:1001E4008AB98BB181608BB98AB18D7F8AB98BB1A1
:0601F40082608BB9089542
:1001FA00E0E8F0E0808183688083E1E8F0E08081D4
:0C020A008B60808384B1826084B9089509
:10021600ECE7F0E0808180648083EAE7F0E08081AB
:0602260087688083089543
:10022C008093C4009093C50084E48093C20088ED51
:06023C008093C10008954B
:0E0242009091C00095FFFCCF8093C6000895F8
:040250000C9400000A
:00000001FF
